:100000000C942A000C9434000C9434000C943400AA
:100010000C9434000C9434000C9434000C94340090
:100020000C9434000C9434000C9434000C94340080
:100030000C9434000C9434000C9434000C94340070
:100040000C9434000C9434000C9434000C94340060
:100050000C94340011241FBECFE5D4E0DEBFCDBF29
:100060000E9444000C9465000C94000010BC8CE0CD
:1000700089B98AB188618AB980B5866880BD0895DA
:100080005F9BFECF8CB108958FEF87BB0E94360037
:1000900084ED90E30197F1F749E036E025E09AE03E
:1000A0005F9BFECF8CB1873711F498BBF9CF8337B4
:1000B00011F428BBF5CF813611F438BBF1CF84366B
:0E00C00011F448BBEDCF18BAEBCFF894FFCF88
:00000001FF
